:020000040000FA
:100000000C9463000C948B000C948B000C944805AA
:100010000C9448050C9448050C948B000C948B00B0
:100020000C948B000C948B000C948B000C948B0024
:100030000C948B000C948B000C948B000C948B0014
:100040000C94A6040C948B000C9416050C94F004EC
:100050000C948B000C948B000C948B000C948B00F4
:100060000C948B000C948B000000000024002700EF
:100070002A0000000008000201000003040700003D
:1000800000000000000000000000230026002900FE
:1000900000000000250028002B00040404040404D0
:1000A0000404020202020202030303030303010227
:1000B00004081020408001020408102001020408F6
:1000C0001020C0059D0811241FBECFEFD8E0DEBF71
:1000D000CDBF22E0ACE6B1E001C01D92AA37B20765
:1000E000E1F711E0A0E0B1E0E4E7F6E102C005903D
:1000F0000D92AC36B107D9F710E0C2E6D0E004C0EB
:100100002197FE010E942C09C136D107C9F70E9430
:100110006B060C942D0B0C94000090E0FC01EE5843
:10012000FF4F2491FC01E255FF4F3491FC01E6564C
:10013000FF4FE491EE23C9F0222339F0233001F17F
:10014000A8F4213019F1223029F1F0E0EE0FFF1F61
:10015000E057FF4FA591B4918FB7F894EC916111DE
:1001600026C030953E233C938FBF08952730A9F0D9
:100170002830C9F0243049F7809180008F7D03C07A
:10018000809180008F7780938000DFCF84B58F7758
:1001900084BDDBCF84B58F7DFBCF8091B0008F779E
:1001A0008093B000D2CF8091B0008F7DF9CF3E2BED
:1001B000DACFCF93DF9390E0FC01E255FF4F24911B
:1001C00086569F4FFC0184918823D1F090E0880FE0
:1001D000991FFC01E859FF4FA591B491FC01E0572C
:1001E000FF4FC591D49161110EC09FB7F8948C91C7
:1001F000E22FE0958E238C932881E223E8839FBF32
:10020000DF91CF9108958FB7F894EC91E22BEC93A6
:100210008FBFF6CF8230910538F0880F991F880F75
:10022000991F05970197F1F70895AF92BF92CF926A
:10023000DF92EF92FF920F931F93CF93DF936C01A6
:100240007B018B01040F151FEB015E01AE18BF0887
:10025000C017D10759F06991D601ED91FC91019039
:10026000F081E02DC6010995892B79F7C501DF9151
:10027000CF911F910F91FF90EF90DF90CF90BF90A3
:10028000AF900895FC01538D448D252F30E0842FCD
:1002900090E0821B930B541710F0CF9608950197AE
:1002A0000895FC01918D828D981761F0A28DAE0F9B
:1002B000BF2FB11D5D968C91928D9F5F9F73928F22
:1002C00090E008958FEF9FEF08952FB7F8948091F5
:1002D000B6019091B701A091B801B091B9012FBFBB
:1002E0008093C2019093C301A093C401B093C50150
:1002F0008AEB91E00E94510197FF26C02FB7F89436
:100300008091B6019091B701A091B801B091B90167
:100310002FBF4091C2015091C3016091C4017091FF
:10032000C501841B950BA60BB70B4091BE015091E4
:10033000BF016091C0017091C10184179507A607A4
:10034000B707B0F28FEF9FEF0895FC01918D828D7A
:10035000981731F0828DE80FF11D858D90E008959A
:100360008FEF9FEF0895FC01918D228D892F90E0F2
:10037000805C9F4F821B91098F73992708958AEBA8
:1003800091E00E94B30121E0892B09F420E0822F43
:10039000089580E090E0892B29F00E94BF0181112F
:1003A0000C9400000895FC01A48DA80FB92FB11D75
:1003B000A35ABF4F2C91848D90E001968F7399279B
:1003C000848FA689B7892C93A089B1898C91837079
:1003D00080648C93938D848D981306C00288F38972
:1003E000E02D80818F7D80830895EF92FF920F939F
:1003F0001F93CF93DF93EC0181E0888F9B8D8C8DD1
:1004000098131AC0E889F989808185FF15C09FB7C4
:10041000F894EE89FF896083E889F9898081837087
:10042000806480839FBF81E090E0DF91CF911F9136
:100430000F91FF90EF900895F62E0B8D10E00F5F57
:100440001F4F0F731127E02E8C8D8E110CC00FB62D
:1004500007FCFACFE889F989808185FFF5CFCE01C5
:100460000E94D301F1CFEB8DEC0FFD2FF11DE35A6C
:10047000FF4FF0829FB7F8940B8FEA89FB89808148
:100480008062CFCFCF93DF93EC01888D8823B9F0C2
:10049000AA89BB89E889F9898C9185FD03C080818F
:1004A00086FD0DC00FB607FCF7CF8C9185FFF2CF0C
:1004B000808185FFEDCFCE010E94D301E9CFDF918E
:1004C000CF9108952091AE013091AF0128173907DF
:1004D00071F49091AC018091AD01981741F0E091D9
:1004E000AC01F0E0E459FE4F808190E008958FEF79
:1004F0009FEF08950895EF92FF920F931F93CF936C
:10050000DF93DC015C96ED90FC905D97E114F104C3
:1005100079F481E090E013969C938E93129790E08B
:1005200080E0DF91CF911F910F91FF90EF900895A0
:100530005196ED91FC91529750968C915097982F2F
:1005400090950FB75E962C915E97122F127021FD39
:100550006095F8942081112319F1282B2083E7015D
:100560002197F1F728E0462F50E0308160FF1AC054
:10057000382B3083E7012197F1F7BA01759567951C
:10058000215089F7112381F08081892380830FBF57
:100590005C968D919C910197F1F781E090E0C1CF3D
:1005A0002923DCCF3923E5CF9081892BEFCF209110
:1005B000AE013091AF012817390761F48091AD0188
:1005C0002091AC0190E0805C9F4F821B91098F735A
:1005D0009927089590E080E008952091AE01309130
:1005E000AF0128173907B9F49091AC018091AD01A2
:1005F000981789F0E091AC01F0E0E459FE4F80815A
:100600002091AC0130E02F5F3F4F2F7333272093B1
:10061000AC0190E008958FEF9FEF089590E080E0A7
:1006200008950F931F93CF93DF938C01D0E0C0E028
:1006300061E087E00E948D0088E795E00E940A0152
:1006400060E087E00E948D0088E795E00E940A0143
:1006500021960C171D0761F7DF91CF911F910F9124
:1006600008950F931F93CF93DF938C01D0E0C0E0E8
:10067000C017D10794F461E085E00E948D0088E7FF
:1006800095E00E940A0160E085E00E948D0088E705
:1006900095E00E940A012196EBCFDF91CF911F9147
:1006A0000F91089542E050E06AE271E08AEB91E038
:1006B0000C941501CF93DF93FC0101900020E9F722
:1006C0003197AF01481B590BBC018AEB91E00E94A6
:1006D0001501EC010E9452038C0F9D1FDF91CF91F9
:1006E0000895CF93DF93FC0144815581608171812E
:1006F0008AEB91E00E941501EC010E9452038C0FDD
:100700009D1FDF91CF910895FC0124813581232B1A
:1007100039F421E0FB018081882349F020E007C003
:10072000808191810E941D0B21E0892BB9F7822FD6
:1007300008950F931F93CF93DF93EC0188819981E4
:10074000009759F02A813B812617370730F081E066
:10075000DF91CF911F910F9108958B016F5F7F4FB4
:100760000E94570A009759F0998388831B830A8354
:100770002C813D81232B59F7FC011082E8CF80E0CA
:10078000E7CFCF93DF93EC0188819981009711F037
:100790000E94CE09198218821D821C821B821A8235
:1007A000DF91CF910895EF92FF920F931F93CF9314
:1007B000DF938C017B01EB0109900020E9F7219781
:1007C000C61BD70BBE010E949903811109C0C80145
:1007D000DF91CF911F910F91FF90EF900C94C10387
:1007E000F801D583C483B70180819181DF91CF91D6
:1007F0001F910F91FF90EF900C94260B9F92AF9258
:10080000BF92CF92DF92EF92FF920F931F93CF93FD
:10081000DF93EC016B01DB011496AD90BC90EE24EC
:10082000E394F12CA114B10429F4F12CE12CAA24B5
:10083000A394B12C198218821B821A821D821C82F9
:100840006CE271E0CE010E94D303F60104811581B0
:10085000E016F10658F5A016B10608F48501D60198
:10086000ED91FC911197E00FF11F908010828D9116
:100870009C91E80EF91EE114F10471F0F70101906A
:100880000020E9F731975F01AE18BF08B501CE012E
:100890000E949903811117C0CE010E94C103F60185
:1008A00080819181080F191FD8019C92CE01DF91A0
:1008B000CF911F910F91FF90EF90DF90CF90BF905D
:1008C000AF909F900895BD82AC82B70188819981D5
:1008D0000E94260BE4CFEF92FF920F931F93CF93CA
:1008E000DF93EC01FB01E080F180E114F10411F1F0
:1008F0000481158101151105A9F08C819D81080FD6
:10090000191FB801CE010E949903882399F028810C
:1009100039818C819D81B701820F931F0E94260B24
:100920001D830C83CE01DF91CF911F910F91FF901A
:10093000EF900895CE010E94C103F4CFFC018081A5
:100940009181009711F00C94CE0908951F920F9297
:100950000FB60F9211242F933F938F939F93AF93D2
:10096000BF938091B6019091B701A091B801B09169
:10097000B9013091B50123E0230F2D3758F50196C9
:10098000A11DB11D2093B5018093B6019093B701CD
:10099000A093B801B093B9018091B1019091B201D7
:1009A000A091B301B091B4010196A11DB11D809336
:1009B000B1019093B201A093B301B093B401BF9180
:1009C000AF919F918F913F912F910F900FBE0F90FC
:1009D0001F90189526E8230F0296A11DB11DD2CFB6
:1009E0001F920F920FB60F9211242F933F934F93A4
:1009F0005F936F937F938F939F93AF93BF93EF9387
:100A0000FF938AEB91E00E94D301FF91EF91BF9198
:100A1000AF919F918F917F916F915F914F913F9196
:100A20002F910F900FBE0F901F9018951F920F924D
:100A30000FB60F9211242F938F939F93EF93FF93F1
:100A4000E091CA01F091CB018081E091D001F09159
:100A5000D10182FD1BC090818091D3018F5F8F7384
:100A60002091D401821741F0E091D301F0E0E654E7
:100A7000FE4F958F8093D301FF91EF919F918F91BE
:100A80002F910F900FBE0F901F9018958081F4CF7B
:100A90001F920F920FB60F9211242F933F934F93F3
:100AA0005F936F937F938F939F93AF93BF93EF93D6
:100AB000FF93E091AE01F091AF01309749F0A68528
:100AC000B7858585968D91FF14C09C918923A1F4EB
:100AD000FF91EF91BF91AF919F918F917F916F9116
:100AE0005F914F913F912F910F900FBE0F901F90EC
:100AF00018959C91892361F7A389B4899C91858974
:100B0000809589238C93868997890197F1F7608D69
:100B1000718DA685B785558538E020E0CB0101971A
:100B2000F1F7822F90E095958795282F4C914523DA
:100B300009F02068315091F7868D81FD20958091D4
:100B4000AD0190E001968F7399273091AC01381771
:100B500099F0A091AD01B0E0A459BE4F2C938093C1
:100B6000AD01828D938D0197F1F7A389B4898C91A2
:100B70009589892B8C93ACCF868D8160868FF1CF40
:100B80001092BD011092BC0188EE93E0A0E0B0E0AD
:100B90008093BE019093BF01A093C001B093C101A7
:100BA0002AE031E03093BB012093BA0125EC30E01C
:100BB0003093C7012093C60124EC30E03093C90183
:100BC0002093C80120EC30E03093CB012093CA0180
:100BD00021EC30E03093CD012093CC0122EC30E0C9
:100BE0003093CF012093CE0126EC30E03093D10139
:100BF0002093D0011092D3011092D4011092D5010C
:100C00001092D60110925A021092590280935B0200
:100C100090935C02A0935D02B0935E028CE191E040
:100C2000909358028093570210926E0210926D02B8
:100C30001092700210926F02109272021092710262
:100C40001092740210927302609175026E7F6D7F34
:100C5000609375026695617081E0682782E00E946A
:100C60008D0061E082E00E94D900E0EBF0E0E491C9
:100C7000E0936702ECE9F0E0E491F0E0EE0FFF1F93
:100C8000E057FF4F85919491909369028093680299
:100C900060E083E00E94D9008091750281FD04C06C
:100CA00061E083E00E948D0083E080936302E1EBCA
:100CB000F0E0E491E0936402EDE9F0E0E491F0E02B
:100CC000EE0FFF1FEA57FF4F8591949190936602B4
:100CD000809365020895CF93DF93CDB7DEB7629717
:100CE0000FB6F894DEBF0FBECDBF789484B5826096
:100CF00084BD84B5816084BD85B5826085BD85B5C0
:100D0000816085BD80916E00816080936E0010923D
:100D100081008091810082608093810080918100B8
:100D20008160809381008091800081608093800049
:100D30008091B10084608093B1008091B0008160A7
:100D40008093B00080917A00846080937A008091D3
:100D50007A00826080937A0080917A00816080932B
:100D60007A0080917A00806880937A001092C100A6
:100D7000E091CA01F091CB0182E08083E091C6014D
:100D8000F091C7011082E091C801F091C9018FEC88
:100D900080831092D201E091CE01F091CF0186E0E4
:100DA0008083E091CC01F091CD01808180618083CE
:100DB000E091CC01F091CD01808188608083E09149
:100DC000CC01F091CD01808180688083E091CC01DD
:100DD000F091CD0180818F7D8083109272021092FC
:100DE00071021092700210926F0210926E021092B5
:100DF0006D028DE991E0909374028093730290915B
:100E00006302963108F047C02DEB30E030936E025C
:100E100020936D022BE931E03093700220936F0232
:100E20002CE231E03093720220937102209168002D
:100E300084E0983048F031E09E3008F430E081E002
:100E400001C0880F3A95EAF7822B809368002DE65F
:100E500030E0983050F02BE630E09E3030F02CE659
:100E600030E0963110F030E020E030936B022093B8
:100E70006A02292F30E0983008F099C081E001C063
:100E8000880F9A95EAF780936C0280917302909193
:100E900074020197F1F78091710290917202892B8F
:100EA00049F1E091AE01F091AF0182E0E735F8073A
:100EB00009F1309739F0A389B4899C91858980958F
:100EC00089238C93809175028E7F80937502109296
:100ED000AD011092AC0187E592E09093AF01809351
:100EE000AE01E0916A02F0916B02808190916C02F8
:100EF000892B808361E084E00E94D90061E085E075
:100F00000E94D90061E086E00E94D90061E087E09C
:100F10000E94D90060E084E00E948D0060E086E0DD
:100F20000E948D0080E0E82E80E0F82E87E592E0B8
:100F30000E94D702892B49F087E592E00E94ED02DA
:100F4000682F8AEB91E00E94F5018AEB91E00E9404
:100F5000B301892B09F44CC01E861D86188A1F8692
:100F60001A8A198A6CE271E0CE010D960E94D303B1
:100F70000E94650197FD28C089831A8209891A8910
:100F80000F5F1F4FB801CE010D960E949903882371
:100F900079F32D853E8589899A89BE016F5F7F4FE0
:100FA000820F931F0E94260B1A8B098BE1CF9E3074
:100FB00040F42850310981E001C0880F2A95EAF7F2
:100FC00062CF2E503109F7CF6DE271E0CE010D9660
:100FD0000E9484038823C1F080E391E00E945A03B9
:100FE00086E690E00E943103CE010D960E949E0499
:100FF000E114F10409F49ACF0E94BF01882309F497
:1010000095CF0E94000092CF68E371E0CE010D966B
:101010000E948403882339F08BE391E00E945A03F5
:1010200082E690E0DFCF62E471E0CE010D960E948F
:101030008403882349F085E491E00E945A0386E600
:1010400090E00E941103D0CF6DE471E0CE010D96C7
:101050000E948403882339F080E591E00E945A03BE
:1010600082E690E0EECF89899A89009721F0ED859C
:10107000FE85309721F41092B001E0EBF1E0208181
:101080002D36C9F5BE01635F7F4FCE0107960E94E2
:10109000FE031A8219821C821B821E821D8267E552
:1010A00071E0CE0101960E94D303BE01695F7F4FBC
:1010B000CE0101960E946B040E947103CE0101963D
:1010C0000E949E04CE0107960E949E04BE01635FAB
:1010D0007F4FCE0101960E94FE0389819A8100977D
:1010E00041F10E94B908CB010E943103CE01019663
:1010F0000E949E0479CF892B21F0ED85FE853097E3
:1011000021F41092B001E0EBF1E08081803709F02A
:101110006BCFBE01635F7F4FCE0107960E94FE0337
:101120001A8219821C821B821E821D8261E671E076
:10113000B8CF60E070E0CB01D6CF8CE191E0909326
:101140005802809357028091AE019091AF0187556C
:10115000924071F4E0916A02F0916B02908180916B
:101160006C028095892380831092AF011092AE01AA
:1011700008951F93FC0199278827BC01E8941191D9
:101180001032E9F3193010F01E30C8F31B3251F061
:101190001D3249F4689406C00E94E008610F711D79
:1011A000811D911D119110531A30B0F33EF49095AA
:1011B0008095709561957F4F8F4F9F4F1F91089538
:1011C000592F482F372F262F660F771F881F991FFB
:1011D000660F771F881F991F620F731F841F951F4B
:1011E000660F771F881F991F08952F923F924F9285
:1011F0005F926F927F928F929F92AF92BF92CF92A7
:10120000DF92EF92FF920F931F93CF93DF93CDB7AF
:10121000DEB7CA1BDB0B0FB6F894DEBF0FBECDBF27
:1012200009942A88398848885F846E847D848C84F8
:101230009B84AA84B984C884DF80EE80FD800C8101
:101240001B81AA81B981CE0FD11D0FB6F894DEBFE4
:101250000FBECDBFED010895EE0FFF1F0590F49175
:10126000E02D09940F931F93CF93DF938230910564
:1012700010F482E090E0E0917802F091790230E0A1
:1012800020E0B0E0A0E0309799F42115310509F491
:101290004AC0281B390B24303105D8F58A819B813F
:1012A0006115710589F1FB0193838283FE0111C0F1
:1012B000408151810281138148175907E0F0481796
:1012C000590799F4109761F012960C9312971396A0
:1012D0001C933296CF01DF91CF911F910F9108950A
:1012E0000093780210937902F4CF2115310551F063
:1012F0004217530738F0A901DB019A01BD01DF0154
:10130000F801C1CFEF01F9CF909379028093780271
:10131000CDCFFE01E20FF31F81939193225031094B
:1013200039832883D7CF2091760230917702232BFF
:1013300041F4209102013091030130937702209310
:10134000760220910001309101012115310541F40F
:101350002DB73EB74091040150910501241B350B78
:10136000E0917602F0917702E217F307A0F42E1BCA
:101370003F0B2817390778F0AC014E5F5F4F2417F9
:10138000350748F04E0F5F1F509377024093760267
:10139000819391939FCFF0E0E0E09CCFCF93DF93D8
:1013A0000097E9F0FC01329713821282A091780233
:1013B000B0917902ED0130E020E01097A1F4208196
:1013C0003181820F931F2091760230917702281786
:1013D000390709F061C0F0937702E0937602DF915C
:1013E000CF910895EA01CE17DF07E8F54A815B81C6
:1013F0009E0141155105B1F7E901FB83EA8349914B
:101400005991C40FD51FEC17FD0761F480819181BC
:101410000296840F951FE9019983888382819381C5
:101420009B838A83F0E0E0E012968D919C91139764
:101430000097B9F52D913C911197CD010296820F3D
:10144000931F20917602309177022817390739F6D9
:10145000309751F51092790210927802B09377028A
:10146000A0937602BCCFD383C28340815181840F85
:10147000951FC817D90761F44E5F5F4F8881998126
:10148000480F591F518340838A819B8193838283B4
:101490002115310509F0B0CFF0937902E09378027D
:1014A0009ECFFD01DC01C0CF13821282D7CFB0E006
:1014B000A0E0EDE5FAE00C94F7088C01009751F4F8
:1014C000CB010E9432098C01C801CDB7DEB7E0E143
:1014D0000C941309FC01E60FF71F9C0122503109FF
:1014E000E217F30708F49DC0D901CD91DC91119763
:1014F000C617D70798F0C530D10530F3CE01049751
:101500008617970708F3C61BD70B2297C193D19371
:101510006D937C93CF010E94CE09D6CF5B01AC1AAC
:10152000BD0A4C018C0E9D1EA0917802B0917902EB
:10153000512C412CF12CE12C109731F58091760241
:10154000909177028815990509F05CC046165706F8
:1015500008F058C08091000190910101009741F47A
:101560008DB79EB74091040150910501841B950BE6
:10157000E817F90708F055C0F0937702E093760278
:10158000F90171836083A0CF8D919C911197129680
:101590006C90129713967C901397A815B90559F57E
:1015A0006C0142E0C40ED11CCA14DB0420F1AC0172
:1015B0004A195B09DA011296159780F062827382EC
:1015C00051834083D9016D937C93E114F10471F050
:1015D000D7011396FC93EE93129776CF22968C0F39
:1015E0009D1FF90191838083F301EFCFF09379027E
:1015F000E093780269CF4816590608F42C017D0162
:10160000D3019ACFCB010E9432097C01009749F0A7
:10161000AE01B8010E94140BC8010E94CE098701D7
:1016200053CF10E000E050CFFB01DC0102C001907D
:101630000D9241505040D8F70895FB01DC018D9187
:10164000019080190110D9F3990B0895FB01DC0179
:1016500001900D920020E1F7089510E0C2E6D0E07D
:1016600004C0FE010E942C092196C336D107C9F798
:10167000F894FFCF00007A02800000000000F5011E
:10168000150142014202B3015101A5010000000011
:101690007B0215010E037A02D702ED0262020D0AE7
:1016A000006D66006D2066726F6E74006D62006D75
:1016B000206261636B00706600702066726F6E74EA
:1016C0000070620070206261636B006D206D6F7648
:1016D00065203A200070206D6F7665203A2000006A
:107E0000112484B714BE81FFF0D085E080938100F7
:107E100082E08093C00088E18093C10086E0809377
:107E2000C20080E18093C4008EE0C9D0259A86E02C
:107E300020E33CEF91E0309385002093840096BBD3
:107E4000B09BFECF1D9AA8958150A9F7CC24DD24C4
:107E500088248394B5E0AB2EA1E19A2EF3E0BF2EE7
:107E6000A2D0813461F49FD0082FAFD0023811F036
:107E7000013811F484E001C083E08DD089C08234E0
:107E800011F484E103C0853419F485E0A6D080C0E4
:107E9000853579F488D0E82EFF2485D0082F10E0AE
:107EA000102F00270E291F29000F111F8ED06801E7
:107EB0006FC0863521F484E090D080E0DECF843638
:107EC00009F040C070D06FD0082F6DD080E0C81688
:107ED00080E7D80618F4F601B7BEE895C0E0D1E017
:107EE00062D089930C17E1F7F0E0CF16F0E7DF06D8
:107EF00018F0F601B7BEE89568D007B600FCFDCFD4
:107F0000A601A0E0B1E02C9130E011968C91119780
:107F100090E0982F8827822B932B1296FA010C0160
:107F200087BEE89511244E5F5F4FF1E0A038BF0790
:107F300051F7F601A7BEE89507B600FCFDCF97BE46
:107F4000E89526C08437B1F42ED02DD0F82E2BD052
:107F50003CD0F601EF2C8F010F5F1F4F84911BD097
:107F6000EA94F801C1F70894C11CD11CFA94CF0C13
:107F7000D11C0EC0853739F428D08EE10CD085E9AC
:107F80000AD08FE07ACF813511F488E018D01DD067
:107F900080E101D065CF982F8091C00085FFFCCF94
:107FA0009093C60008958091C00087FFFCCF809118
:107FB000C00084FD01C0A8958091C6000895E0E648
:107FC000F0E098E1908380830895EDDF803219F02E
:107FD00088E0F5DFFFCF84E1DECF1F93182FE3DFCA
:107FE0001150E9F7F2DF1F91089580E0E8DFEE27F6
:047FF000FF270994CA
:027FFE00040479
:00000001FF
