:100000000C9463000C948B000C948B000C942506CC
:100010000C9425060C9425060C948B000C948B00F4
:100020000C948B000C948B000C948B000C948B0024
:100030000C948B000C948B000C948B000C948B0014
:100040000C9483050C948B000C94F3050C94CD0553
:100050000C948B000C948B000C948B000C948B00F4
:100060000C948B000C948B000000000024002700EF
:100070002A0000000008000201000003040700003D
:1000800000000000000000000000230026002900FE
:1000900000000000250028002B00040404040404D0
:1000A0000404020202020202030303030303010227
:1000B00004081020408001020408102001020408F6
:1000C00010209D06E30A11241FBECFEFD8E0DEBF4B
:1000D000CDBF22E0A8E8B1E001C01D92A639B20769
:1000E000E1F711E0A0E0B1E0E2EAFBE102C0059037
:1000F0000D92A838B107D9F710E0C2E6D0E004C0ED
:100100002197FE010E94A70BC136D107C9F70E94B3
:1001100048070C94C40D0C94000090E0FC01EE58CC
:10012000FF4F2491FC01E255FF4F3491FC01E6564C
:10013000FF4FE491EE23C9F0222339F0233001F17F
:10014000A8F4213019F1223029F1F0E0EE0FFF1F61
:10015000E057FF4FA591B4918FB7F894EC916111DE
:1001600026C030953E233C938FBF08952730A9F0D9
:100170002830C9F0243049F7809180008F7D03C07A
:10018000809180008F7780938000DFCF84B58F7758
:1001900084BDDBCF84B58F7DFBCF8091B0008F779E
:1001A0008093B000D2CF8091B0008F7DF9CF3E2BED
:1001B000DACFCF93DF9390E0FC01E255FF4F24911B
:1001C00086569F4FFC0184918823D1F090E0880FE0
:1001D000991FFC01E859FF4FA591B491FC01E0572C
:1001E000FF4FC591D49161110EC09FB7F8948C91C7
:1001F000E22FE0958E238C932881E223E8839FBF32
:10020000DF91CF9108958FB7F894EC91E22BEC93A6
:100210008FBFF6CF3FB7F8948091CE019091CF0178
:10022000A091D001B091D10126B5A89B05C02F3F68
:1002300019F00196A11DB11D3FBFBA2FA92F982F0C
:100240008827BC01CD01620F711D811D911D42E007
:10025000660F771F881F991F4A95D1F708958F92CF
:100260009F92AF92BF92CF92DF92EF92FF920E9445
:100270000A014B015C0180E9C82EDD24D394E12CF6
:10028000F12C0E940A01681979098A099B09683EC4
:10029000734081059105A8F321E0C21AD108E10855
:1002A000F10888EE880E83E0981EA11CB11CC114D1
:1002B000D104E104F10429F7FF90EF90DF90CF9093
:1002C000BF90AF909F908F900895AF92BF92CF92C2
:1002D000DF92EF92FF920F931F93CF93DF936C0106
:1002E0007B018B01040F151FEB015E01AE18BF08E7
:1002F000C017D10759F06991D601ED91FC91019099
:10030000F081E02DC6010995892B79F7C501DF91B0
:10031000CF911F910F91FF90EF90DF90CF90BF9002
:10032000AF900895FC01538D448D252F30E0842F2C
:1003300090E0821B930B541710F0CF96089501970D
:100340000895FC01918D828D981761F0A28DAE0FFA
:10035000BF2FB11D5D968C91928D9F5F9F73928F81
:1003600090E008958FEF9FEF0895FC01918D828DAD
:10037000981731F0828DE80FF11D858D90E008957A
:100380008FEF9FEF0895FC01918D228D892F90E0D2
:10039000805C9F4F821B91098F739927089586ED8A
:1003A00091E00E94C30121E0892B09F420E0822F13
:1003B000089580E090E0892B29F00E94CF018111FF
:1003C0000C9400000895FC01A48DA80FB92FB11D55
:1003D000A35ABF4F2C91848D90E001968F7399277B
:1003E000848FA689B7892C93A089B1898C91837059
:1003F00080648C93938D848D981306C00288F38952
:10040000E02D80818F7D80830895EF92FF920F937E
:100410001F93CF93DF93EC0181E0888F9B8D8C8DB0
:1004200098131AC0E889F989808185FF15C09FB7A4
:10043000F894EE89FF896083E889F9898081837067
:10044000806480839FBF81E090E0DF91CF911F9116
:100450000F91FF90EF900895F62E0B8D10E00F5F37
:100460001F4F0F731127E02E8C8D8E110CC00FB60D
:1004700007FCFACFE889F989808185FFF5CFCE01A5
:100480000E94E301F1CFEB8DEC0FFD2FF11DE35A3C
:10049000FF4FF0829FB7F8940B8FEA89FB89808128
:1004A0008062CFCFCF93DF93EC01888D8823B9F0A2
:1004B000AA89BB89E889F9898C9185FD03C080816F
:1004C00086FD0DC00FB607FCF7CF8C9185FFF2CFEC
:1004D000808185FFEDCFCE010E94E301E9CFDF915E
:1004E000CF9108952091CA013091CB012817390787
:1004F00071F49091C8018091C901981741F0E09181
:10050000C801F0E0E857FE4F808190E008958FEF3A
:100510009FEF08950895EF92FF920F931F93CF934B
:10052000DF93DC015C96ED90FC905D97E114F104A3
:1005300079F481E090E013969C938E93129790E06B
:1005400080E0DF91CF911F910F91FF90EF90089580
:100550005196ED91FC91529750968C915097982F0F
:1005600090950FB75E962C915E97122F127021FD19
:100570006095F8942081112319F1282B2083E7013D
:100580002197F1F728E0462F50E0308160FF1AC034
:10059000382B3083E7012197F1F7BA0175956795FC
:1005A000215089F7112381F08081892380830FBF37
:1005B0005C968D919C910197F1F781E090E0C1CF1D
:1005C0002923DCCF3923E5CF9081892BEFCF2091F0
:1005D000CA013091CB012817390761F48091C90114
:1005E0002091C80190E0805C9F4F821B91098F731E
:1005F0009927089590E080E008952091CA013091F4
:10060000CB0128173907B9F49091C8018091C9012D
:10061000981789F0E091C801F0E0E857FE4F80811B
:100620002091C80130E02F5F3F4F2F733327209375
:10063000C80190E008958FEF9FEF08952FB7F894C9
:100640008091D2019091D301A091D401B091D501B4
:100650002FBF80937B0290937C02A0937D02B09386
:100660007E0283E792E00E94FD0297FF26C02FB72B
:10067000F8948091D2019091D301A091D401B091CE
:10068000D5012FBF40917B0250917C0260917D0289
:1006900070917E02841B950BA60BB70B40917702DD
:1006A000509178026091790270917A0284179507CF
:1006B000A607B707B0F28FEF9FEF089590E080E0B4
:1006C00008950F931F93CF93DF93FC01048115814D
:1006D0000115110539F4FB011082DF91CF911F91B3
:1006E0000F910895415051094017510708F48A01AC
:1006F000EB01FC0160817181A801CE010E94AA0D6D
:10070000C00FD11F1882E9CFFC0180819181009731
:1007100011F00C94490C0895FB0101900020E9F7B9
:100720003197AF01461B570BDC01ED91FC91028024
:10073000F381E02D09946115710511F00C948C037F
:1007400090E080E00895CF93DF93BC0186ED91E0C7
:100750000E949B03EC016AE271E086ED91E00E9449
:100760008C038C0F9D1FDF91CF9108950F931F93E2
:10077000CF93DF93EC0188819981009759F02A810A
:100780003B812617370730F081E0DF91CF911F9131
:100790000F9108958B016F5F7F4F0E94D20C0097DD
:1007A00059F0998388831B830A832C813D81232BF5
:1007B00059F7FC011082E8CF80E0E7CFEF92FF927B
:1007C0000F931F93CF93DF936115710541F480E080
:1007D000DF91CF911F910F91FF90EF9008954115F8
:1007E0005105B1F07B01EC010C811D81040F151F37
:1007F000B8010E94B603882351F3288139818C8186
:100800009D81B701820F931F0E94A30D1D830C834E
:1008100081E0DECFEF92FF920F931F93CF93DF9390
:10082000EC017B018A01BA010E94B603288139815B
:10083000811114C02115310519F0C9010E94490C1C
:10084000198218821D821C821B821A82CE01DF91BE
:10085000CF911F910F91FF90EF9008951D830C830E
:10086000B701C9010E94A30DF1CFFB010190002047
:10087000E9F73197AF01461B570B0C940A040F930D
:100880001F93CF93DF9300D0CDB7DEB78C01FC016F
:100890001182108213821282158214826CE271E03E
:1008A0000E9435040E941E0397FD0BC089831A82A3
:1008B00041E050E0BE016F5F7F4FC8010E94DE0340
:1008C000F1CFC8010F900F90DF91CF911F910F9141
:1008D0000895EF92FF920F931F93CF93DF9300D071
:1008E00000D000D0CDB7DEB7EDB6FEB61A821982C1
:1008F0001C821B821E821D826DE271E0CE01019678
:100900000E9435044D815E814F5F5F4F8DB79EB76A
:10091000841B950B0FB6F8949EBF0FBE8DBF0DB70D
:100920001EB70F5F1F4F4115510529F0B801CE01C9
:1009300001960E946103B80183E792E00E949B0345
:10094000CE0101960E9484030FB6F894FEBE0FBE3E
:10095000EDBE26960FB6F894DEBF0FBECDBFDF9179
:10096000CF911F910F91FF90EF900895AF92BF929A
:10097000CF92DF92EF92FF920F931F93CF93DF936B
:10098000EC016B015A0179012417350720F48B2DF6
:100990005901E42EF82E198218821B821A821D82B8
:1009A0001C826CE271E0CE010E943504D6011496DF
:1009B0000D911C91A016B10628F5E016F10608F479
:1009C0008701D601ED91FC911197E00FF11FF080A6
:1009D00010826D917C916A0D7B1D61157105F1F09E
:1009E000FB0101900020E9F73197AF01461B570B3F
:1009F000CE010E940A04F60180819181080F191F1F
:100A0000D801FC92CE01DF91CF911F910F91FF9001
:100A1000EF90DF90CF90BF90AF900895888199813B
:100A2000009711F00E94490C198218821D821C82C5
:100A30001B821A82E0CFCF92DF92EF92FF920F9348
:100A40001F93CF93DF93CDB7DEB72E970FB6F894F1
:100A5000DEBF0FBECDBF6C010DB71EB71A8619865B
:100A60001C861B861E861D8667E371E0CE010996F3
:100A70000E9435044AE0CE0101967C01BC01C6010A
:100A80000E94260BF70101900020E9F73197AF0192
:100A90004E195F09B701CE0109960E94DE034D850C
:100AA0005E854F5F5F4F8DB79EB7841B950B0FB66A
:100AB000F8949EBF0FBE8DBF01967C014115510574
:100AC00029F0BC01CE0109960E946103B70183E7BA
:100AD00092E00E949B03CE0109960E9484030FB608
:100AE000F8941EBF0FBE0DBF2E960FB6F894DEBF52
:100AF0000FBECDBFDF91CF911F910F91FF90EF906F
:100B0000DF90CF9008951F920F920FB60F9211248D
:100B10002F933F938F939F93AF93BF938091D20175
:100B20009091D301A091D401B091D5013091CD0124
:100B300023E0230F2D3758F50196A11DB11D2093F9
:100B4000CD018093D2019093D301A093D401B093AF
:100B5000D5018091CE019091CF01A091D001B091AB
:100B6000D1010196A11DB11D8093CE019093CF01BB
:100B7000A093D001B093D101BF91AF919F918F917C
:100B80003F912F910F900FBE0F901F90189526E860
:100B9000230F0296A11DB11DD2CF1F920F920FB647
:100BA0000F9211242F933F934F935F936F937F93F3
:100BB0008F939F93AF93BF93EF93FF9386ED91E055
:100BC0000E94E301FF91EF91BF91AF919F918F91AF
:100BD0007F916F915F914F913F912F910F900FBE39
:100BE0000F901F9018951F920F920FB60F9211241D
:100BF0002F938F939F93EF93FF93E091E601F091F2
:100C0000E7018081E091EC01F091ED0182FD1BC0D4
:100C100090818091EF018F5F8F732091F001821797
:100C200041F0E091EF01F0E0EA52FE4F958F8093A2
:100C3000EF01FF91EF919F918F912F910F900FBE38
:100C40000F901F9018958081F4CF1F920F920FB6CE
:100C50000F9211242F933F934F935F936F937F9342
:100C60008F939F93AF93BF93EF93FF93E091CA014C
:100C7000F091CB01309749F0A685B7858585968D93
:100C800091FF14C09C918923A1F4FF91EF91BF9132
:100C9000AF919F918F917F916F915F914F913F9114
:100CA0002F910F900FBE0F901F9018959C91892344
:100CB00061F7A389B4899C918589809589238C9358
:100CC000868997890197F1F7608D718DA685B78523
:100CD000558538E020E0CB010197F1F7822F90E0B5
:100CE00095958795282F4C91452309F02068315020
:100CF00091F7868D81FD20958091C90190E0019644
:100D00008F7399273091C801381799F0A091C901C4
:100D1000B0E0A857BE4F2C938093C901828D938D6C
:100D20000197F1F7A389B4898C919589892B8C93CC
:100D3000ACCF868D8160868FF1CF1092D901109251
:100D4000D80188EE93E0A0E0B0E08093DA019093C0
:100D5000DB01A093DC01B093DD012AE031E03093A8
:100D6000D7012093D60125EC30E03093E3012093A6
:100D7000E20124EC30E03093E5012093E40120EC23
:100D800030E03093E7012093E60121EC30E030932E
:100D9000E9012093E80122EC30E03093EB0120934D
:100DA000EA0126EC30E03093ED012093EC01109243
:100DB000EF011092F0011092F1011092F2011092E5
:100DC0007602109275028093770290937802A09336
:100DD0007902B0937A028CE191E09093740280934F
:100DE000730210928A021092890210928C02109261
:100DF0008B0210928E0210928D021092900210922D
:100E00008F02609191026E7F6D7F60939102669573
:100E1000617081E0682782E00E948D0061E082E0DD
:100E20000E94D900E0EBF0E0E491E0938302ECE96A
:100E3000F0E0E491F0E0EE0FFF1FE057FF4F8591E7
:100E40009491909385028093840260E083E00E94F5
:100E5000D9008091910281FD04C061E083E00E948D
:100E60008D0083E080937F02E1EBF0E0E491E0937A
:100E70008002EDE9F0E0E491F0E0EE0FFF1FEA57A9
:100E8000FF4F8591949190938202809381020895FF
:100E9000CF93DF93CDB7DEB7E5970FB6F894DEBFFB
:100EA0000FBECDBF789484B5826084BD84B5816067
:100EB00084BD85B5826085BD85B5816085BD809125
:100EC0006E00816080936E0010928100809181009D
:100ED0008260809381008091810081608093810095
:100EE000809180008160809380008091B100846057
:100EF0008093B1008091B00081608093B0008091B8
:100F00007A00846080937A0080917A008260809376
:100F10007A0080917A00816080937A0080917A00D3
:100F2000806880937A001092C100E091E601F09110
:100F3000E70182E08083E091E201F091E301108219
:100F4000E091E401F091E5018FEC80831092EE01D5
:100F5000E091EA01F091EB0186E08083E091E80105
:100F6000F091E901808180618083E091E801F09156
:100F7000E901808188608083E091E801F091E901D6
:100F8000808180688083E091E801F091E9018081AF
:100F90008F7D808310928E0210928D0210928C02AF
:100FA00010928B0210928A02109289028DE991E0D0
:100FB0009093900280938F0290917F02963108F077
:100FC00047C02DEB30E030938A02209389022BE951
:100FD00031E030938C0220938B022CE231E030938D
:100FE0008E0220938D022091680084E0983048F0B2
:100FF00031E09E3008F430E081E001C0880F3A957E
:10100000EAF7822B809368002DE630E0983050F0AC
:101010002BE630E09E3030F02CE630E0963110F0D8
:1010200030E020E03093870220938602292F30E0C1
:10103000983008F077C081E001C0880F9A95EAF7F0
:101040008093880280918F02909190020197F1F72E
:1010500080918D0290918E02892B49F1E091CA0115
:10106000F091CB0122E0E337F20709F1309739F034
:10107000A389B4899C918589809589238C938091DB
:1010800091028E7F809391021092C9011092C80143
:1010900083E792E09093CB018093CA01E0918602AE
:1010A000F0918702808190918802892B808361E092
:1010B00084E00E94D90061E085E00E94D90061E0EF
:1010C00086E00E94D90061E087E00E94D90060E0DC
:1010D00084E00E948D0060E086E00E948D0083E73E
:1010E00092E00E94E702892B09F468C0CE018E9637
:1010F0000E943F0483E792E00E94E7028C01892B63
:10110000F1F0CE0101960E943F044D815E8169811C
:101110007A81CE018E960E94DE03CE0101960E9456
:101120008403E8CF9E3040F42850310981E001C0AB
:10113000880F2A95EAF784CF2E503109F7CF8CE338
:1011400091E00E94A3034AA95BA96EA57FA586ED45
:1011500091E00E9465016AE271E086ED91E00E94F3
:101160008C031A8219821C821B821E821D826EA52C
:101170007FA56115710531F04AA95BA9CE010196E1
:101180000E940A048D819E81892B21F0E981FA81D8
:10119000309721F41092CC01ECECF1E0F080CE011C
:1011A00001960E94840339E4F31215C089E491E0AA
:1011B0000E94A303CE018E960E94840380E090E0FB
:1011C000892B09F48CCF0E94CF01882309F487CFA3
:1011D0000E94000084CF60E5F612ECCF19A618A695
:1011E0001BA61AA61DA61CA66EA57FA561157105D6
:1011F00031F04AA95BA9CE0188960E940A04CCA4CA
:10120000DDA4C114D10439F1A8A4B9A46CE770E03D
:10121000C5010E94980D7C01EA18FB08892B19F47E
:10122000EE24EA94FE2CF501EC0DFD1D9080108259
:10123000A8A4B9A46CE770E0C5010E94B90DCA0C5E
:10124000DB1CF6019082009749F028A539A56C01B6
:10125000C21AD30A06C0EE24EA94FE2CCC24CA9407
:10126000DC2CA7014F5F5F4F9601BE01685D7F4F89
:10127000CE0101960E94B604CE0101960E9484031D
:101280002CA53DA5A6014F5F5F4FBE01685D7F4F56
:10129000CE0101960E94B60489819A810097E1F1FE
:1012A0000E94FF0A1B01CE0101960E9484034CA5F7
:1012B0005DA568A579A586ED91E00E9465010E9473
:1012C0006904F12CE12C021513050CF03EC183E7F3
:1012D00092E00E94E702892BB1F38DB79EB79DABD8
:1012E0008CABCE0182960E943F0483E792E00E947D
:1012F000E702892BA9F0CE0101960E943F044D819F
:101300005E8169817A81CE0182960E94DE03CE01E0
:1013100001960E948403E9CF60E070E0CB01C2CF68
:101320004EA05FA01A8219821C821B821E821D821F
:101330006AA17BA1712C612C6115710511F1A201CB
:10134000CE0101960E940A0429813A814D815E8175
:1013500090E080E0712C612C4817590791F0F90159
:10136000E80FF91F2115310521F41092CC01ECECA6
:10137000F1E060816B3219F4EFEF6E1A7E0A01968C
:10138000EBCFFFEF6F1A7F0ACE0101960E94840314
:10139000C30126E0880F991F2A95E1F72DB73EB7C4
:1013A000281B390B0FB6F8943EBF0FBE2DBF8DB76B
:1013B0009EB701966C014C01AC0130E020E090E05A
:1013C00080E0FA01E80FF91F108201968034910540
:1013D000C1F72F5F3F4F405C5F4F261537057CF309
:1013E0001A8219821C821B821E821D826AA17BA125
:1013F0006115710509F448C04EA15FA1CE010196A7
:101400000E940A0469817A81AD81BE8130E020E0CA
:1014100090E080E050E040E02A173B07A9F1FB0193
:10142000E20FF31F6115710521F41092CC01ECEC71
:10143000F1E0E081EB3239F44F5F5F4F90E080E004
:101440002F5F3F4FE9CFE03371F4FA01689415F84C
:10145000EE0FFF1F1694E1F7EC0DFD1DE80FF91FCD
:1014600010820196EDCFE133E1F7FA01689415F8A7
:10147000EE0FFF1F1694E1F7EC0DFD1DE80FF91FAD
:10148000BB24B394B082EDCFCE0101960E948403B9
:1014900080E591E00E94A303B12CA12CD12CC12C9A
:1014A000F401EC0DFD1D808119A2805D88A3BE01B1
:1014B000605E7F4F86ED91E00E949B036BE571E0DB
:1014C00086ED91E00E948C032FEFC21AD20A30E41D
:1014D000C316D10429F76AE271E086ED91E00E941B
:1014E0008C036FEFA61AB60A80E4880E911CA6142E
:1014F000B704A4F2040D151D8DE591E00E94A3032D
:10150000C70101960E941B050E942F01C701029688
:101510000E941B050E942F0193E0E90EF11CC701F8
:101520000E941B050E942F010215130514F40E944E
:101530006904CE0182960E948403ECA9FDA90FB62E
:10154000F894FEBF0FBEEDBFBECE89E691E00E94CB
:10155000A303EDB6FEB61A8219821C821B821E827C
:101560001D8268E771E0CE0101960E9435044D812D
:101570005E814F5F5F4F2DB73EB7241B350B0FB613
:10158000F8943EBF0FBE2DBF0DB71EB70F5F1F4FA4
:101590004115510529F0B801CE0101960E94610361
:1015A000B80183E792E00E949B03CE0101960E945E
:1015B00084030FB6F894FEBE0FBEEDBECE01889632
:1015C0000E948403F7CD8CE191E0909374028093A4
:1015D00073028091CA019091CB018357924071F4BC
:1015E000E0918602F0918702908180918802809537
:1015F000892380831092CB011092CA0108951F9312
:10160000FC0199278827BC01E89411911032E9F375
:10161000193010F01E30C8F31B3251F01D3249F45E
:10162000689406C00E94310B610F711D811D911DD0
:10163000119110531A30B0F33EF490958095709547
:1016400061957F4F8F4F9F4F1F910895BB274A3061
:1016500031F4992322F4BDE2909581959F4F0C942B
:10166000470B592F482F372F262F660F771F881FBC
:10167000991F660F771F881F991F620F731F841FA2
:10168000951F660F771F881F991F0895BB27FB01C1
:101690005527AA27880F991FAA1FA41710F0A41B6B
:1016A00083955051B9F7A05DAA3308F0A95DA193C5
:1016B000009779F7B111B1931192CB010C94600BA3
:1016C000DC01FC01672F71917723E1F7329704C0A9
:1016D0007C916D9370836291AE17BF07C8F3089534
:1016E0002F923F924F925F926F927F928F929F9232
:1016F000AF92BF92CF92DF92EF92FF920F931F9320
:10170000CF93DF93CDB7DEB7CA1BDB0B0FB6F894D0
:10171000DEBF0FBECDBF09942A88398848885F8410
:101720006E847D848C849B84AA84B984C884DF8081
:10173000EE80FD800C811B81AA81B981CE0FD11D65
:101740000FB6F894DEBF0FBECDBFED010895EE0FCA
:10175000FF1F0590F491E02D09940F931F93CF93F1
:10176000DF938230910510F482E090E0E0919402E2
:10177000F091950230E020E0B0E0A0E0309799F4DD
:101780002115310509F44AC0281B390B24303105D5
:10179000D8F58A819B816115710589F1FB019383DD
:1017A0008283FE0111C0408151810281138148175B
:1017B0005907E0F04817590799F4109761F012960D
:1017C0000C93129713961C933296CF01DF91CF9111
:1017D0001F910F9108950093940210939502F4CFF6
:1017E0002115310551F04217530738F0A901DB01EB
:1017F0009A01BD01DF01F801C1CFEF01F9CF90934C
:10180000950280939402CDCFFE01E20FF31F8193E6
:1018100091932250310939832883D7CF20919202A6
:1018200030919302232B41F4209102013091030166
:101830003093930220939202209100013091010194
:101840002115310541F42DB73EB740910401509167
:101850000501241B350BE0919202F0919302E217EF
:10186000F307A0F42E1B3F0B2817390778F0AC01C3
:101870004E5F5F4F2417350748F04E0F5F1F5093A0
:10188000930240939202819391939FCFF0E0E0E026
:101890009CCFCF93DF930097E9F0FC01329713823E
:1018A0001282A0919402B0919502ED0130E020E007
:1018B0001097A1F420813181820F931F2091920211
:1018C000309193022817390709F061C0F093930211
:1018D000E0939202DF91CF910895EA01CE17DF07DE
:1018E000E8F54A815B819E0141155105B1F7E90197
:1018F000FB83EA8349915991C40FD51FEC17FD076B
:1019000061F4808191810296840F951FE90199838A
:101910008883828193819B838A83F0E0E0E0129642
:101920008D919C9113970097B9F52D913C9111974A
:10193000CD010296820F931F209192023091930263
:101940002817390739F6309751F510929502109201
:101950009402B0939302A0939202BCCFD383C2832C
:1019600040815181840F951FC817D90761F44E5FDC
:101970005F4F88819981480F591F518340838A8125
:101980009B81938382832115310509F0B0CFF093B9
:101990009502E09394029ECFFD01DC01C0CF13823B
:1019A0001282D7CFB0E0A0E0E8EDFCE00C94720B1F
:1019B0008C01009751F4CB010E94AD0B8C01C80142
:1019C000CDB7DEB7E0E10C948E0BFC01E60FF71FFC
:1019D0009C0122503109E217F30708F49DC0D90198
:1019E000CD91DC911197C617D70798F0C530D10576
:1019F00030F3CE0104978617970708F3C61BD70B61
:101A00002297C193D1936D937C93CF010E94490C8F
:101A1000D6CF5B01AC1ABD0A4C018C0E9D1EA09165
:101A20009402B0919502512C412CF12CE12C10978D
:101A300031F580919202909193028815990509F0F1
:101A40005CC04616570608F058C08091000190917E
:101A50000101009741F48DB79EB740910401509168
:101A60000501841B950BE817F90708F055C0F093A2
:101A70009302E0939202F90171836083A0CF8D916C
:101A80009C91119712966C90129713967C901397D5
:101A9000A815B90559F56C0142E0C40ED11CCA1451
:101AA000DB0420F1AC014A195B09DA0112961597A3
:101AB00080F06282738251834083D9016D937C935D
:101AC000E114F10471F0D7011396FC93EE93129791
:101AD00076CF22968C0F9D1FF90191838083F301AD
:101AE000EFCFF0939502E093940269CF4816590620
:101AF00008F42C017D01D3019ACFCB010E94AD0BDC
:101B00007C01009749F0AE01B8010E948F0DC80119
:101B10000E94490C870153CF10E000E050CFFB0139
:101B2000DC0102C001900D9241505040D8F7089559
:101B3000FC018191861721F08823D9F79927089510
:101B40003197CF010895FB01DC0101900D92002037
:101B5000E1F70895FB01DC014150504048F001904D
:101B60000D920020C9F701C01D9241505040E0F78E
:101B70000895FC0181E090E00190061609F4CF0180
:101B80000020D1F70197089510E0C2E6D0E004C02C
:101B9000FE010E94A70B2196C336D107C9F7F8941E
:021BA000FFCF75
:101BA200000096028000000000000502650192011B
:101BB2005202C301A101B501000000008B026501C0
:101BC2005E038A02E702FD0272020D0A0053656E8D
:101BD200645F44617461004C696E6500726563659F
:101BE200697665644461746100436F6465204900ED
:101BF200646174614172726179203A200070726985
:101C02006E74696E672E2E2E00436F6D706C657454
:101C120065205072696E7400436F6D706C657465F7
:081C22005F5072696E7400004E
:00000001FF
